{
  "contractName": "ProductManagement",
  "abi": [
    {
      "anonymous": false,
      "inputs": [
        {
          "indexed": false,
          "internalType": "uint256",
          "name": "productId",
          "type": "uint256"
        },
        {
          "indexed": false,
          "internalType": "string",
          "name": "name",
          "type": "string"
        },
        {
          "indexed": false,
          "internalType": "address",
          "name": "seller",
          "type": "address"
        },
        {
          "indexed": false,
          "internalType": "uint256",
          "name": "price",
          "type": "uint256"
        }
      ],
      "name": "ProductAdded",
      "type": "event"
    },
    {
      "anonymous": false,
      "inputs": [
        {
          "indexed": false,
          "internalType": "uint256",
          "name": "productId",
          "type": "uint256"
        },
        {
          "indexed": false,
          "internalType": "string",
          "name": "name",
          "type": "string"
        },
        {
          "indexed": false,
          "internalType": "string",
          "name": "description",
          "type": "string"
        },
        {
          "indexed": false,
          "internalType": "uint256",
          "name": "price",
          "type": "uint256"
        },
        {
          "indexed": false,
          "internalType": "uint256",
          "name": "quantity",
          "type": "uint256"
        },
        {
          "indexed": false,
          "internalType": "bool",
          "name": "available",
          "type": "bool"
        }
      ],
      "name": "ProductUpdated",
      "type": "event"
    },
    {
      "inputs": [],
      "name": "productCount",
      "outputs": [
        {
          "internalType": "uint256",
          "name": "",
          "type": "uint256"
        }
      ],
      "stateMutability": "view",
      "type": "function"
    },
    {
      "inputs": [
        {
          "internalType": "uint256",
          "name": "",
          "type": "uint256"
        }
      ],
      "name": "products",
      "outputs": [
        {
          "internalType": "string",
          "name": "name",
          "type": "string"
        },
        {
          "internalType": "string",
          "name": "description",
          "type": "string"
        },
        {
          "internalType": "uint256",
          "name": "price",
          "type": "uint256"
        },
        {
          "internalType": "uint256",
          "name": "quantity",
          "type": "uint256"
        },
        {
          "internalType": "address",
          "name": "seller",
          "type": "address"
        },
        {
          "internalType": "bool",
          "name": "available",
          "type": "bool"
        }
      ],
      "stateMutability": "view",
      "type": "function"
    },
    {
      "inputs": [
        {
          "internalType": "string",
          "name": "_name",
          "type": "string"
        },
        {
          "internalType": "string",
          "name": "_description",
          "type": "string"
        },
        {
          "internalType": "uint256",
          "name": "_price",
          "type": "uint256"
        },
        {
          "internalType": "uint256",
          "name": "_quantity",
          "type": "uint256"
        }
      ],
      "name": "addProduct",
      "outputs": [],
      "stateMutability": "nonpayable",
      "type": "function"
    },
    {
      "inputs": [
        {
          "internalType": "uint256",
          "name": "_productId",
          "type": "uint256"
        },
        {
          "internalType": "string",
          "name": "_name",
          "type": "string"
        },
        {
          "internalType": "string",
          "name": "_description",
          "type": "string"
        },
        {
          "internalType": "uint256",
          "name": "_price",
          "type": "uint256"
        },
        {
          "internalType": "uint256",
          "name": "_quantity",
          "type": "uint256"
        },
        {
          "internalType": "bool",
          "name": "_available",
          "type": "bool"
        }
      ],
      "name": "updateProduct",
      "outputs": [],
      "stateMutability": "nonpayable",
      "type": "function"
    },
    {
      "inputs": [
        {
          "internalType": "uint256",
          "name": "_productId",
          "type": "uint256"
        }
      ],
      "name": "getProduct",
      "outputs": [
        {
          "components": [
            {
              "internalType": "string",
              "name": "name",
              "type": "string"
            },
            {
              "internalType": "string",
              "name": "description",
              "type": "string"
            },
            {
              "internalType": "uint256",
              "name": "price",
              "type": "uint256"
            },
            {
              "internalType": "uint256",
              "name": "quantity",
              "type": "uint256"
            },
            {
              "internalType": "address",
              "name": "seller",
              "type": "address"
            },
            {
              "internalType": "bool",
              "name": "available",
              "type": "bool"
            }
          ],
          "internalType": "struct ProductManagement.Product",
          "name": "",
          "type": "tuple"
        }
      ],
      "stateMutability": "view",
      "type": "function"
    },
    {
      "inputs": [],
      "name": "getProductCount",
      "outputs": [
        {
          "internalType": "uint256",
          "name": "",
          "type": "uint256"
        }
      ],
      "stateMutability": "view",
      "type": "function"
    },
    {
      "inputs": [
        {
          "internalType": "uint256",
          "name": "_productId",
          "type": "uint256"
        },
        {
          "internalType": "uint256",
          "name": "_amount",
          "type": "uint256"
        }
      ],
      "name": "decreaseQuantity",
      "outputs": [],
      "stateMutability": "nonpayable",
      "type": "function"
    },
    {
      "inputs": [
        {
          "internalType": "uint256",
          "name": "_productId",
          "type": "uint256"
        },
        {
          "internalType": "bool",
          "name": "_available",
          "type": "bool"
        }
      ],
      "name": "setProductAvailability",
      "outputs": [],
      "stateMutability": "nonpayable",
      "type": "function"
    }
  ],
  "bytecode": "0x608060405234801561000f575f80fd5b50610ce38061001d5f395ff3fe608060405234801561000f575f80fd5b5060043610610085575f3560e01c80637acc0b20116100585780637acc0b20146100db578063b9db15b414610100578063e0f6ef8714610120578063f24d88a814610129575f80fd5b806301cecd14146100895780632dc085cf1461009e5780634a1cfdef146100b15780634a348da9146100c4575b5f80fd5b61009c61009736600461082a565b61013c565b005b61009c6100ac3660046108ad565b610247565b61009c6100bf366004610937565b610364565b6001545b6040519081526020015b60405180910390f35b6100ee6100e9366004610957565b6103e5565b6040516100d2969594939291906109b1565b61011361010e366004610957565b610535565b6040516100d29190610a06565b6100c860015481565b61009c610137366004610a7d565b6106ec565b600180545f918261014c83610abb565b909155506040805160c081018252878152602080820188905281830187905260608201869052336080830152600160a08301525f848152908190529190912081519293509091819061019e9082610b59565b50602082015160018201906101b39082610b59565b5060408281015160028301556060830151600383015560808301516004909201805460a0909401511515600160a01b026001600160a81b03199094166001600160a01b0390931692909217929092179055517f27053d27a5eb2a68ec20c3e8b30cbfbbe7bb019458aaac90ba4606956f97c8d690610238908390889033908890610c15565b60405180910390a15050505050565b5f868152602081905260409020600401546001600160a01b031633146102b45760405162461bcd60e51b815260206004820152601e60248201527f4f6e6c792073656c6c65722063616e207570646174652070726f64756374000060448201526064015b60405180910390fd5b5f8681526020819052604090206102cb8682610b59565b505f8681526020819052604090206001016102e68582610b59565b505f86815260208190526040908190206002810185905560038101849055600401805460ff60a01b1916600160a01b84151502179055517fd0dbdebee53d815e01c866e1c7dee99e8d797050d89e35af23d98d10d0e0b7609061035490889088908890889088908890610c49565b60405180910390a1505050505050565b5f828152602081905260409020600301548111156103bc5760405162461bcd60e51b8152602060048201526015602482015274496e73756666696369656e74207175616e7469747960581b60448201526064016102ab565b5f82815260208190526040812060030180548392906103dc908490610c94565b90915550505050565b5f602081905290815260409020805481906103ff90610ad3565b80601f016020809104026020016040519081016040528092919081815260200182805461042b90610ad3565b80156104765780601f1061044d57610100808354040283529160200191610476565b820191905f5260205f20905b81548152906001019060200180831161045957829003601f168201915b50505050509080600101805461048b90610ad3565b80601f01602080910402602001604051908101604052809291908181526020018280546104b790610ad3565b80156105025780601f106104d957610100808354040283529160200191610502565b820191905f5260205f20905b8154815290600101906020018083116104e557829003601f168201915b5050505060028301546003840154600490940154929390929091506001600160a01b03811690600160a01b900460ff1686565b6105756040518060c0016040528060608152602001606081526020015f81526020015f81526020015f6001600160a01b031681526020015f151581525090565b5f8281526020819052604090819020815160c0810190925280548290829061059c90610ad3565b80601f01602080910402602001604051908101604052809291908181526020018280546105c890610ad3565b80156106135780601f106105ea57610100808354040283529160200191610613565b820191905f5260205f20905b8154815290600101906020018083116105f657829003601f168201915b5050505050815260200160018201805461062c90610ad3565b80601f016020809104026020016040519081016040528092919081815260200182805461065890610ad3565b80156106a35780601f1061067a576101008083540402835291602001916106a3565b820191905f5260205f20905b81548152906001019060200180831161068657829003601f168201915b505050918352505060028201546020820152600382015460408201526004909101546001600160a01b0381166060830152600160a01b900460ff16151560809091015292915050565b5f828152602081905260409020600401546001600160a01b031633146107605760405162461bcd60e51b815260206004820152602360248201527f4f6e6c792073656c6c65722063616e206368616e676520617661696c6162696c60448201526269747960e81b60648201526084016102ab565b5f918252602082905260409091206004018054911515600160a01b0260ff60a01b19909216919091179055565b634e487b7160e01b5f52604160045260245ffd5b5f82601f8301126107b0575f80fd5b813567ffffffffffffffff808211156107cb576107cb61078d565b604051601f8301601f19908116603f011681019082821181831017156107f3576107f361078d565b8160405283815286602085880101111561080b575f80fd5b836020870160208301375f602085830101528094505050505092915050565b5f805f806080858703121561083d575f80fd5b843567ffffffffffffffff80821115610854575f80fd5b610860888389016107a1565b95506020870135915080821115610875575f80fd5b50610882878288016107a1565b949794965050505060408301359260600135919050565b803580151581146108a8575f80fd5b919050565b5f805f805f8060c087890312156108c2575f80fd5b86359550602087013567ffffffffffffffff808211156108e0575f80fd5b6108ec8a838b016107a1565b96506040890135915080821115610901575f80fd5b5061090e89828a016107a1565b945050606087013592506080870135915061092b60a08801610899565b90509295509295509295565b5f8060408385031215610948575f80fd5b50508035926020909101359150565b5f60208284031215610967575f80fd5b5035919050565b5f81518084525f5b8181101561099257602081850181015186830182015201610976565b505f602082860101526020601f19601f83011685010191505092915050565b60c081525f6109c360c083018961096e565b82810360208401526109d5818961096e565b6040840197909752505060608101939093526001600160a01b03919091166080830152151560a09091015292915050565b602081525f825160c06020840152610a2160e084018261096e565b90506020840151601f19848303016040850152610a3e828261096e565b915050604084015160608401526060840151608084015260018060a01b0360808501511660a084015260a0840151151560c08401528091505092915050565b5f8060408385031215610a8e575f80fd5b82359150610a9e60208401610899565b90509250929050565b634e487b7160e01b5f52601160045260245ffd5b5f60018201610acc57610acc610aa7565b5060010190565b600181811c90821680610ae757607f821691505b602082108103610b0557634e487b7160e01b5f52602260045260245ffd5b50919050565b601f821115610b54575f81815260208120601f850160051c81016020861015610b315750805b601f850160051c820191505b81811015610b5057828155600101610b3d565b5050505b505050565b815167ffffffffffffffff811115610b7357610b7361078d565b610b8781610b818454610ad3565b84610b0b565b602080601f831160018114610bba575f8415610ba35750858301515b5f19600386901b1c1916600185901b178555610b50565b5f85815260208120601f198616915b82811015610be857888601518255948401946001909101908401610bc9565b5085821015610c0557878501515f19600388901b60f8161c191681555b5050505050600190811b01905550565b848152608060208201525f610c2d608083018661096e565b6001600160a01b03949094166040830152506060015292915050565b86815260c060208201525f610c6160c083018861096e565b8281036040840152610c73818861096e565b606084019690965250506080810192909252151560a0909101529392505050565b81810381811115610ca757610ca7610aa7565b9291505056fea26469706673582212209e27bd9bd77657c017c6fa77ddb99107d810e89ebbba78e07c1c6f234813365864736f6c63430008150033",
  "immutableReferences": {},
  "source": "// SPDX-License-Identifier: MIT\r\npragma solidity ^0.8.0;\r\n\r\ncontract ProductManagement {\r\n    struct Product {\r\n        string name;\r\n        string description;\r\n        uint256 price; // in Wei\r\n        uint256 quantity;\r\n        address seller;\r\n        bool available;\r\n    }\r\n\r\n    mapping(uint256 => Product) public products;\r\n    uint256 public productCount;\r\n\r\n    event ProductAdded(uint256 productId, string name, address seller, uint256 price);\r\n    event ProductUpdated(uint256 productId, string name, string description, uint256 price, uint256 quantity, bool available);\r\n\r\n    function addProduct(\r\n        string memory _name,\r\n        string memory _description,\r\n        uint256 _price,\r\n        uint256 _quantity\r\n    ) external {\r\n        uint256 productId = productCount++;\r\n        products[productId] = Product({\r\n            name: _name,\r\n            description: _description,\r\n            price: _price,\r\n            quantity: _quantity,\r\n            seller: msg.sender,\r\n            available: true\r\n        });\r\n        emit ProductAdded(productId, _name, msg.sender, _price);\r\n    }\r\n\r\n    function updateProduct(\r\n        uint256 _productId,\r\n        string memory _name,\r\n        string memory _description,\r\n        uint256 _price,\r\n        uint256 _quantity,\r\n        bool _available\r\n    ) external {\r\n        require(products[_productId].seller == msg.sender, \"Only seller can update product\");\r\n        products[_productId].name = _name;\r\n        products[_productId].description = _description;\r\n        products[_productId].price = _price;\r\n        products[_productId].quantity = _quantity;\r\n        products[_productId].available = _available;\r\n\r\n        emit ProductUpdated(_productId, _name, _description, _price, _quantity, _available);\r\n    }\r\n\r\n    function getProduct(uint256 _productId) external view returns (Product memory) {\r\n        return products[_productId];\r\n    }\r\n\r\n    function getProductCount() external view returns (uint256) {\r\n        return productCount;\r\n    }\r\n\r\n    function decreaseQuantity(uint256 _productId, uint256 _amount) external {\r\n        require(products[_productId].quantity >= _amount, \"Insufficient quantity\");\r\n        products[_productId].quantity -= _amount;\r\n    }\r\n\r\n    function setProductAvailability(uint256 _productId, bool _available) external {\r\n        require(products[_productId].seller == msg.sender, \"Only seller can change availability\");\r\n        products[_productId].available = _available;\r\n    }\r\n}\r\n",
  "sourcePath": "C:\\Users\\amine\\Desktop\\PCD\\TrustChain_back\\truffle_test\\contracts\\ProductManagement.sol",
  "compiler": {
    "name": "solc",
    "version": "0.8.21+commit.d9974bed.Emscripten.clang"
  },
  "schemaVersion": "3.4.16",
  "updatedAt": "2025-05-01T16:23:53.644Z",
  "devdoc": {
    "kind": "dev",
    "methods": {},
    "version": 1
  },
  "userdoc": {
    "kind": "user",
    "methods": {},
    "version": 1
  }
}