{
  "contractName": "TransactionManagement",
  "abi": [
    {
      "inputs": [
        {
          "internalType": "address",
          "name": "_productManagementAddress",
          "type": "address"
        }
      ],
      "stateMutability": "nonpayable",
      "type": "constructor"
    },
    {
      "anonymous": false,
      "inputs": [
        {
          "indexed": false,
          "internalType": "uint256",
          "name": "transactionId",
          "type": "uint256"
        },
        {
          "indexed": false,
          "internalType": "uint256",
          "name": "productId",
          "type": "uint256"
        },
        {
          "indexed": false,
          "internalType": "address",
          "name": "buyer",
          "type": "address"
        },
        {
          "indexed": false,
          "internalType": "uint256",
          "name": "amount",
          "type": "uint256"
        }
      ],
      "name": "TransactionCreated",
      "type": "event"
    },
    {
      "anonymous": false,
      "inputs": [
        {
          "indexed": false,
          "internalType": "uint256",
          "name": "transactionId",
          "type": "uint256"
        },
        {
          "indexed": false,
          "internalType": "enum TransactionManagement.TransactionStatus",
          "name": "newStatus",
          "type": "uint8"
        }
      ],
      "name": "TransactionStatusUpdated",
      "type": "event"
    },
    {
      "inputs": [],
      "name": "productManagement",
      "outputs": [
        {
          "internalType": "contract ProductManagement",
          "name": "",
          "type": "address"
        }
      ],
      "stateMutability": "view",
      "type": "function"
    },
    {
      "inputs": [],
      "name": "transactionCount",
      "outputs": [
        {
          "internalType": "uint256",
          "name": "",
          "type": "uint256"
        }
      ],
      "stateMutability": "view",
      "type": "function"
    },
    {
      "inputs": [
        {
          "internalType": "uint256",
          "name": "",
          "type": "uint256"
        }
      ],
      "name": "transactions",
      "outputs": [
        {
          "internalType": "uint256",
          "name": "productId",
          "type": "uint256"
        },
        {
          "internalType": "address",
          "name": "buyer",
          "type": "address"
        },
        {
          "internalType": "uint256",
          "name": "amount",
          "type": "uint256"
        },
        {
          "internalType": "uint256",
          "name": "timestamp",
          "type": "uint256"
        },
        {
          "internalType": "enum TransactionManagement.TransactionStatus",
          "name": "status",
          "type": "uint8"
        }
      ],
      "stateMutability": "view",
      "type": "function"
    },
    {
      "inputs": [
        {
          "internalType": "uint256",
          "name": "_productId",
          "type": "uint256"
        }
      ],
      "name": "createTransaction",
      "outputs": [],
      "stateMutability": "payable",
      "type": "function"
    },
    {
      "inputs": [
        {
          "internalType": "uint256",
          "name": "_transactionId",
          "type": "uint256"
        },
        {
          "internalType": "enum TransactionManagement.TransactionStatus",
          "name": "_newStatus",
          "type": "uint8"
        }
      ],
      "name": "updateTransactionStatus",
      "outputs": [],
      "stateMutability": "nonpayable",
      "type": "function"
    },
    {
      "inputs": [
        {
          "internalType": "uint256",
          "name": "_transactionId",
          "type": "uint256"
        }
      ],
      "name": "getTransaction",
      "outputs": [
        {
          "internalType": "uint256",
          "name": "productId",
          "type": "uint256"
        },
        {
          "internalType": "address",
          "name": "buyer",
          "type": "address"
        },
        {
          "internalType": "uint256",
          "name": "amount",
          "type": "uint256"
        },
        {
          "internalType": "uint256",
          "name": "timestamp",
          "type": "uint256"
        },
        {
          "internalType": "enum TransactionManagement.TransactionStatus",
          "name": "status",
          "type": "uint8"
        }
      ],
      "stateMutability": "view",
      "type": "function"
    }
  ],
  "bytecode": "0x608060405234801561000f575f80fd5b5060405161099738038061099783398101604081905261002e91610052565b5f80546001600160a01b0319166001600160a01b039290921691909117905561007f565b5f60208284031215610062575f80fd5b81516001600160a01b0381168114610078575f80fd5b9392505050565b61090b8061008c5f395ff3fe608060405260043610610054575f3560e01c806333ea3dc8146100585780634296fa23146100915780639ace38c2146100c7578063b77bf6001461011b578063bafbf7281461013e578063da165ddb1461015f575b5f80fd5b348015610063575f80fd5b50610077610072366004610606565b610172565b604051610088959493929190610651565b60405180910390f35b34801561009c575f80fd5b505f546100af906001600160a01b031681565b6040516001600160a01b039091168152602001610088565b3480156100d2575f80fd5b506100776100e1366004610606565b600160208190525f9182526040909120805491810154600282015460038301546004909301546001600160a01b0390921692909160ff1685565b348015610126575f80fd5b5061013060025481565b604051908152602001610088565b348015610149575f80fd5b5061015d61015836600461068c565b61021c565b005b61015d61016d366004610606565b610294565b5f818152600160208181526040808420815160a08101835281548152938101546001600160a01b03169284019290925260028201549083015260038101546060830152600480820154849384938493849384939291608084019160ff16908111156101df576101df61061d565b60048111156101f0576101f061061d565b9052508051602082015160408301516060840151608090940151929b919a509850919650945092505050565b5f8281526001602081905260409091206004808201805492938593919260ff199092169184908111156102515761025161061d565b02179055507fa6a2dfdb66b93f22714d88d23580fe418ec79c253df7ccbd4a19c423a12d224d83836040516102879291906106bd565b60405180910390a1505050565b5f8054604051632e76c56d60e21b8152600481018490526001600160a01b039091169063b9db15b4906024015f60405180830381865afa1580156102da573d5f803e3d5ffd5b505050506040513d5f823e601f3d908101601f1916820160405261030191908101906107f0565b90508060a001516103595760405162461bcd60e51b815260206004820152601860248201527f50726f64756374206973206e6f7420617661696c61626c65000000000000000060448201526064015b60405180910390fd5b5f8160600151116103ac5760405162461bcd60e51b815260206004820152601760248201527f50726f64756374206973206f7574206f662073746f636b0000000000000000006044820152606401610350565b806040015134146103f75760405162461bcd60e51b8152602060048201526015602482015274125b98dbdc9c9958dd08185b5bdd5b9d081cd95b9d605a1b6044820152606401610350565b608081015161040f6001600160a01b0382163461056c565b5f54604051634a1cfdef60e01b815260048101859052600160248201526001600160a01b0390911690634a1cfdef906044015f604051808303815f87803b158015610458575f80fd5b505af115801561046a573d5f803e3d5ffd5b5050600280545f935091508261047f836108b1565b909155506040805160a0810182528681523360208083019182523483850190815242606085019081525f6080860181815288825260019485905296902085518155935184840180546001600160a01b0319166001600160a01b03909216919091179055905160028401555160038301559251600480830180549697509395929491939260ff1916919084908111156105195761051961061d565b0217905550506040805183815260208101879052338183015234606082015290517fa8bfac72285d2c7a4231a709d3dee850d0f0d204d4b18a725d6e6b8597ee8ad492509081900360800190a150505050565b5f826001600160a01b0316826040515f6040518083038185875af1925050503d805f81146105b5576040519150601f19603f3d011682016040523d82523d5f602084013e6105ba565b606091505b50509050806106015760405162461bcd60e51b8152602060048201526013602482015272115512081d1c985b9cd9995c8819985a5b1959606a1b6044820152606401610350565b505050565b5f60208284031215610616575f80fd5b5035919050565b634e487b7160e01b5f52602160045260245ffd5b6005811061064d57634e487b7160e01b5f52602160045260245ffd5b9052565b8581526001600160a01b0385166020820152604081018490526060810183905260a081016106826080830184610631565b9695505050505050565b5f806040838503121561069d575f80fd5b823591506020830135600581106106b2575f80fd5b809150509250929050565b828152604081016106d16020830184610631565b9392505050565b634e487b7160e01b5f52604160045260245ffd5b60405160c0810167ffffffffffffffff8111828210171561070f5761070f6106d8565b60405290565b604051601f8201601f1916810167ffffffffffffffff8111828210171561073e5761073e6106d8565b604052919050565b5f82601f830112610755575f80fd5b815167ffffffffffffffff81111561076f5761076f6106d8565b6020610783601f8301601f19168201610715565b8281528582848701011115610796575f80fd5b5f5b838110156107b3578581018301518282018401528201610798565b505f928101909101919091529392505050565b80516001600160a01b03811681146107dc575f80fd5b919050565b805180151581146107dc575f80fd5b5f60208284031215610800575f80fd5b815167ffffffffffffffff80821115610817575f80fd5b9083019060c0828603121561082a575f80fd5b6108326106ec565b825182811115610840575f80fd5b61084c87828601610746565b825250602083015182811115610860575f80fd5b61086c87828601610746565b6020830152506040830151604082015260608301516060820152610892608084016107c6565b60808201526108a360a084016107e1565b60a082015295945050505050565b5f600182016108ce57634e487b7160e01b5f52601160045260245ffd5b506001019056fea2646970667358221220ce917162543e58dadaeef98a0ee974ba078a446414799eb8c7ecdd683ba9859d64736f6c63430008150033",
  "immutableReferences": {},
  "source": "pragma solidity ^0.8.0;\r\n\r\nimport \"./ProductManagement.sol\";\r\nimport \"./SafeTransferLib.sol\";\r\n\r\ncontract TransactionManagement {\r\n    using SafeTransferLib for address payable;\r\n\r\n    ProductManagement public productManagement;\r\n\r\n    struct TxDetails { \r\n        uint256 productId;\r\n        address buyer;\r\n        uint256 amount;\r\n        uint256 timestamp;\r\n        TransactionStatus status;\r\n    }\r\n\r\n    enum TransactionStatus {\r\n        PENDING,\r\n        CONFIRMED,\r\n        SHIPPED,\r\n        COMPLETED,\r\n        CANCELLED\r\n    }\r\n\r\n    mapping(uint256 => TxDetails) public transactions;\r\n    uint256 public transactionCount;\r\n\r\n    event TransactionCreated(uint256 transactionId, uint256 productId, address buyer, uint256 amount);\r\n    event TransactionStatusUpdated(uint256 transactionId, TransactionStatus newStatus);\r\n\r\n    constructor(address _productManagementAddress) {\r\n        productManagement = ProductManagement(_productManagementAddress);\r\n    }\r\n\r\n    function createTransaction(uint256 _productId) external payable {\r\n        ProductManagement.Product memory product = productManagement.getProduct(_productId);\r\n        require(product.available, \"Product is not available\");\r\n        require(product.quantity > 0, \"Product is out of stock\");\r\n        require(msg.value == product.price, \"Incorrect amount sent\");\r\n\r\n        address payable seller = payable(product.seller);\r\n        seller.safeTransfer(msg.value);\r\n\r\n        productManagement.decreaseQuantity(_productId, 1); \r\n\r\n        uint256 transactionId = transactionCount++;\r\n        transactions[transactionId] = TxDetails({ \r\n            productId: _productId,\r\n            buyer: msg.sender,\r\n            amount: msg.value,\r\n            timestamp: block.timestamp,\r\n            status: TransactionStatus.PENDING\r\n        });\r\n\r\n        emit TransactionCreated(transactionId, _productId, msg.sender, msg.value);\r\n    }\r\n\r\n    function updateTransactionStatus(uint256 _transactionId, TransactionStatus _newStatus) external {\r\n        TxDetails storage transactionDetails = transactions[_transactionId];  // Renamed variable to transactionDetails\r\n        transactionDetails.status = _newStatus;\r\n        emit TransactionStatusUpdated(_transactionId, _newStatus);\r\n    }\r\n\r\n    function getTransaction(uint256 _transactionId)\r\n        external\r\n        view\r\n        returns (\r\n            uint256 productId,\r\n            address buyer,\r\n            uint256 amount,\r\n            uint256 timestamp,\r\n            TransactionStatus status\r\n        )\r\n    {\r\n        TxDetails memory transactionDetails = transactions[_transactionId];\r\n        return (transactionDetails.productId, transactionDetails.buyer, transactionDetails.amount, transactionDetails.timestamp, transactionDetails.status);\r\n    }\r\n}\r\n",
  "sourcePath": "C:\\Users\\amine\\Desktop\\PCD\\TrustChain_back\\truffle_test\\contracts\\TransactionManagement.sol",
  "compiler": {
    "name": "solc",
    "version": "0.8.21+commit.d9974bed.Emscripten.clang"
  },
  "schemaVersion": "3.4.16",
  "updatedAt": "2025-05-01T16:23:53.652Z",
  "devdoc": {
    "kind": "dev",
    "methods": {},
    "version": 1
  },
  "userdoc": {
    "kind": "user",
    "methods": {},
    "version": 1
  }
}