{
  "contractName": "UserManagement",
  "abi": [
    {
      "inputs": [],
      "stateMutability": "nonpayable",
      "type": "constructor"
    },
    {
      "anonymous": false,
      "inputs": [
        {
          "indexed": false,
          "internalType": "address",
          "name": "seller",
          "type": "address"
        }
      ],
      "name": "SellerRegistered",
      "type": "event"
    },
    {
      "anonymous": false,
      "inputs": [
        {
          "indexed": false,
          "internalType": "address",
          "name": "user",
          "type": "address"
        },
        {
          "indexed": false,
          "internalType": "bytes32",
          "name": "hashedName",
          "type": "bytes32"
        }
      ],
      "name": "UserNameSet",
      "type": "event"
    },
    {
      "anonymous": false,
      "inputs": [
        {
          "indexed": false,
          "internalType": "address",
          "name": "user",
          "type": "address"
        },
        {
          "indexed": false,
          "internalType": "enum UserManagement.UserRole",
          "name": "role",
          "type": "uint8"
        }
      ],
      "name": "UserRoleSet",
      "type": "event"
    },
    {
      "inputs": [],
      "name": "admin",
      "outputs": [
        {
          "internalType": "address",
          "name": "",
          "type": "address"
        }
      ],
      "stateMutability": "view",
      "type": "function"
    },
    {
      "inputs": [
        {
          "internalType": "address",
          "name": "",
          "type": "address"
        }
      ],
      "name": "userNames",
      "outputs": [
        {
          "internalType": "bytes32",
          "name": "",
          "type": "bytes32"
        }
      ],
      "stateMutability": "view",
      "type": "function"
    },
    {
      "inputs": [
        {
          "internalType": "address",
          "name": "",
          "type": "address"
        }
      ],
      "name": "userRoles",
      "outputs": [
        {
          "internalType": "enum UserManagement.UserRole",
          "name": "",
          "type": "uint8"
        }
      ],
      "stateMutability": "view",
      "type": "function"
    },
    {
      "inputs": [
        {
          "internalType": "address",
          "name": "_user",
          "type": "address"
        },
        {
          "internalType": "enum UserManagement.UserRole",
          "name": "_role",
          "type": "uint8"
        }
      ],
      "name": "setUserRole",
      "outputs": [],
      "stateMutability": "nonpayable",
      "type": "function"
    },
    {
      "inputs": [
        {
          "internalType": "address",
          "name": "_user",
          "type": "address"
        }
      ],
      "name": "getUserRole",
      "outputs": [
        {
          "internalType": "enum UserManagement.UserRole",
          "name": "",
          "type": "uint8"
        }
      ],
      "stateMutability": "view",
      "type": "function"
    },
    {
      "inputs": [],
      "name": "registerSeller",
      "outputs": [],
      "stateMutability": "nonpayable",
      "type": "function"
    },
    {
      "inputs": [
        {
          "internalType": "address",
          "name": "_user",
          "type": "address"
        },
        {
          "internalType": "bytes32",
          "name": "_hashedName",
          "type": "bytes32"
        }
      ],
      "name": "setUserName",
      "outputs": [],
      "stateMutability": "nonpayable",
      "type": "function"
    }
  ],
  "bytecode": "0x608060405234801561000f575f80fd5b50600280546001600160a01b0319163390811782555f8181526020819052604090819020805460ff191684179055517f59677687a42489b70a29984338e5404a1c9abc93449b9aae9b1322a913f386fe9261006a9291610077565b60405180910390a16100b0565b6001600160a01b038316815260408101600383106100a357634e487b7160e01b5f52602160045260245ffd5b8260208301529392505050565b6103fd806100bd5f395ff3fe608060405234801561000f575f80fd5b506004361061007a575f3560e01c806352c9224c1161005857806352c9224c146100e757806374d5e100146100ef5780637f28163514610111578063f851a4401461013e575f80fd5b806303a696111461007e5780630667e8051461009357806327820851146100a6575b5f80fd5b61009161008c3660046102e2565b610169565b005b6100916100a136600461031a565b61022a565b6100d16100b4366004610342565b6001600160a01b03165f9081526020819052604090205460ff1690565b6040516100de9190610396565b60405180910390f35b61009161027a565b6100d16100fd366004610342565b5f6020819052908152604090205460ff1681565b61013061011f366004610342565b60016020525f908152604090205481565b6040519081526020016100de565b600254610151906001600160a01b031681565b6040516001600160a01b0390911681526020016100de565b6002546001600160a01b031633146101b45760405162461bcd60e51b815260206004820152600a60248201526927b7363c9030b236b4b760b11b604482015260640160405180910390fd5b6001600160a01b0382165f908152602081905260409020805482919060ff191660018360028111156101e8576101e8610362565b02179055507f59677687a42489b70a29984338e5404a1c9abc93449b9aae9b1322a913f386fe828260405161021e9291906103aa565b60405180910390a15050565b6001600160a01b0382165f81815260016020908152604091829020849055815192835282018390527fe8902b6f3d334a65946ca2280eedd9a2014018fbb40d19de49d76c148dd382d5910161021e565b335f8181526020818152604091829020805460ff1916600117905590519182527f4d97d287a8f631378031b05cb24c876085261ddaa7b8f584477370ef473fbb3d910160405180910390a1565b80356001600160a01b03811681146102dd575f80fd5b919050565b5f80604083850312156102f3575f80fd5b6102fc836102c7565b915060208301356003811061030f575f80fd5b809150509250929050565b5f806040838503121561032b575f80fd5b610334836102c7565b946020939093013593505050565b5f60208284031215610352575f80fd5b61035b826102c7565b9392505050565b634e487b7160e01b5f52602160045260245ffd5b6003811061039257634e487b7160e01b5f52602160045260245ffd5b9052565b602081016103a48284610376565b92915050565b6001600160a01b03831681526040810161035b602083018461037656fea2646970667358221220ff5bc7add4edfc353ad253baf05f60db1525ab9656162d94344611782519118a64736f6c63430008150033",
  "immutableReferences": {},
  "source": "pragma solidity ^0.8.0;\r\n\r\ncontract UserManagement {\r\n    \r\n    enum UserRole {\r\n        BUYER,\r\n        SELLER,\r\n        ADMIN\r\n    }\r\n\r\n    mapping(address => UserRole) public userRoles;\r\n    mapping(address => bytes32) public userNames;\r\n\r\n    address public admin;\r\n\r\n    event UserRoleSet(address user, UserRole role);\r\n    event SellerRegistered(address seller);\r\n    event UserNameSet(address user, bytes32 hashedName);\r\n\r\n    constructor() {\r\n        admin = msg.sender;\r\n        userRoles[msg.sender] = UserRole.ADMIN;\r\n        emit UserRoleSet(msg.sender, UserRole.ADMIN);\r\n    }\r\n\r\n    function setUserRole(address _user, UserRole _role) external onlyAdmin {\r\n        userRoles[_user] = _role;\r\n        emit UserRoleSet(_user, _role);\r\n    }\r\n\r\n    function getUserRole(address _user) external view returns (UserRole) {\r\n        return userRoles[_user];\r\n    }\r\n\r\n    function registerSeller() external {\r\n        userRoles[msg.sender] = UserRole.SELLER;\r\n        emit SellerRegistered(msg.sender);\r\n    }\r\n\r\n    function setUserName(address _user, bytes32 _hashedName) external {\r\n        userNames[_user] = _hashedName;\r\n        emit UserNameSet(_user, _hashedName);\r\n    }\r\n\r\n    modifier onlyAdmin() {\r\n        require(msg.sender == admin, \"Only admin\");\r\n        _;\r\n    }\r\n}\r\n",
  "sourcePath": "C:\\Users\\amine\\Desktop\\PCD\\TrustChain_back\\truffle_test\\contracts\\UserManagement.sol",
  "compiler": {
    "name": "solc",
    "version": "0.8.21+commit.d9974bed.Emscripten.clang"
  },
  "schemaVersion": "3.4.16",
  "updatedAt": "2025-05-01T16:23:53.658Z",
  "devdoc": {
    "kind": "dev",
    "methods": {},
    "version": 1
  },
  "userdoc": {
    "kind": "user",
    "methods": {},
    "version": 1
  }
}