{
  "contractName": "TransactionManagement",
  "abi": [
    {
      "inputs": [
        {
          "internalType": "address",
          "name": "_productManagementAddress",
          "type": "address"
        }
      ],
      "stateMutability": "nonpayable",
      "type": "constructor"
    },
    {
      "anonymous": false,
      "inputs": [
        {
          "indexed": false,
          "internalType": "uint256",
          "name": "transactionId",
          "type": "uint256"
        },
        {
          "indexed": false,
          "internalType": "uint256",
          "name": "productId",
          "type": "uint256"
        },
        {
          "indexed": false,
          "internalType": "address",
          "name": "buyer",
          "type": "address"
        },
        {
          "indexed": false,
          "internalType": "uint256",
          "name": "amount",
          "type": "uint256"
        }
      ],
      "name": "TransactionCreated",
      "type": "event"
    },
    {
      "anonymous": false,
      "inputs": [
        {
          "indexed": false,
          "internalType": "uint256",
          "name": "transactionId",
          "type": "uint256"
        },
        {
          "indexed": false,
          "internalType": "enum TransactionManagement.TransactionStatus",
          "name": "newStatus",
          "type": "uint8"
        }
      ],
      "name": "TransactionStatusUpdated",
      "type": "event"
    },
    {
      "inputs": [],
      "name": "productManagement",
      "outputs": [
        {
          "internalType": "contract ProductManagement",
          "name": "",
          "type": "address"
        }
      ],
      "stateMutability": "view",
      "type": "function",
      "constant": true
    },
    {
      "inputs": [],
      "name": "transactionCount",
      "outputs": [
        {
          "internalType": "uint256",
          "name": "",
          "type": "uint256"
        }
      ],
      "stateMutability": "view",
      "type": "function",
      "constant": true
    },
    {
      "inputs": [
        {
          "internalType": "uint256",
          "name": "",
          "type": "uint256"
        }
      ],
      "name": "transactions",
      "outputs": [
        {
          "internalType": "uint256",
          "name": "productId",
          "type": "uint256"
        },
        {
          "internalType": "address",
          "name": "buyer",
          "type": "address"
        },
        {
          "internalType": "uint256",
          "name": "amount",
          "type": "uint256"
        },
        {
          "internalType": "uint256",
          "name": "timestamp",
          "type": "uint256"
        },
        {
          "internalType": "enum TransactionManagement.TransactionStatus",
          "name": "status",
          "type": "uint8"
        }
      ],
      "stateMutability": "view",
      "type": "function",
      "constant": true
    },
    {
      "inputs": [
        {
          "internalType": "uint256",
          "name": "_productId",
          "type": "uint256"
        }
      ],
      "name": "createTransaction",
      "outputs": [],
      "stateMutability": "payable",
      "type": "function",
      "payable": true
    },
    {
      "inputs": [
        {
          "internalType": "uint256",
          "name": "_transactionId",
          "type": "uint256"
        },
        {
          "internalType": "enum TransactionManagement.TransactionStatus",
          "name": "_newStatus",
          "type": "uint8"
        }
      ],
      "name": "updateTransactionStatus",
      "outputs": [],
      "stateMutability": "nonpayable",
      "type": "function"
    },
    {
      "inputs": [
        {
          "internalType": "uint256",
          "name": "_transactionId",
          "type": "uint256"
        }
      ],
      "name": "getTransaction",
      "outputs": [
        {
          "internalType": "uint256",
          "name": "productId",
          "type": "uint256"
        },
        {
          "internalType": "address",
          "name": "buyer",
          "type": "address"
        },
        {
          "internalType": "uint256",
          "name": "amount",
          "type": "uint256"
        },
        {
          "internalType": "uint256",
          "name": "timestamp",
          "type": "uint256"
        },
        {
          "internalType": "enum TransactionManagement.TransactionStatus",
          "name": "status",
          "type": "uint8"
        }
      ],
      "stateMutability": "view",
      "type": "function",
      "constant": true
    }
  ],
  "bytecode": "0x60806040523480156200001157600080fd5b506040516200125e3803806200125e8339818101604052810190620000379190620000e8565b806000806101000a81548173ffffffffffffffffffffffffffffffffffffffff021916908373ffffffffffffffffffffffffffffffffffffffff160217905550506200011a565b600080fd5b600073ffffffffffffffffffffffffffffffffffffffff82169050919050565b6000620000b08262000083565b9050919050565b620000c281620000a3565b8114620000ce57600080fd5b50565b600081519050620000e281620000b7565b92915050565b6000602082840312156200010157620001006200007e565b5b60006200011184828501620000d1565b91505092915050565b611134806200012a6000396000f3fe608060405260043610610072576000357c01000000000000000000000000000000000000000000000000000000009004806333ea3dc8146100775780634296fa23146100b85780639ace38c2146100e3578063b77bf60014610124578063bafbf7281461014f578063da165ddb14610178575b600080fd5b34801561008357600080fd5b5061009e60048036038101906100999190610868565b610194565b6040516100af95949392919061095c565b60405180910390f35b3480156100c457600080fd5b506100cd610299565b6040516100da9190610a0e565b60405180910390f35b3480156100ef57600080fd5b5061010a60048036038101906101059190610868565b6102bd565b60405161011b95949392919061095c565b60405180910390f35b34801561013057600080fd5b50610139610320565b6040516101469190610a29565b60405180910390f35b34801561015b57600080fd5b5061017660048036038101906101719190610a69565b610326565b005b610192600480360381019061018d9190610868565b6103a7565b005b600080600080600080600160008881526020019081526020016000206040518060a0016040529081600082015481526020016001820160009054906101000a900473ffffffffffffffffffffffffffffffffffffffff1673ffffffffffffffffffffffffffffffffffffffff1673ffffffffffffffffffffffffffffffffffffffff16815260200160028201548152602001600382015481526020016004820160009054906101000a900460ff166004811115610254576102536108e5565b5b6004811115610266576102656108e5565b5b81525050905080600001518160200151826040015183606001518460800151955095509550955095505091939590929450565b60008054906101000a900473ffffffffffffffffffffffffffffffffffffffff1681565b60016020528060005260406000206000915090508060000154908060010160009054906101000a900473ffffffffffffffffffffffffffffffffffffffff16908060020154908060030154908060040160009054906101000a900460ff16905085565b60025481565b6000600160008481526020019081526020016000209050818160040160006101000a81548160ff02191690836004811115610364576103636108e5565b5b02179055507fa6a2dfdb66b93f22714d88d23580fe418ec79c253df7ccbd4a19c423a12d224d838360405161039a929190610aa9565b60405180910390a1505050565b60008060009054906101000a900473ffffffffffffffffffffffffffffffffffffffff1673ffffffffffffffffffffffffffffffffffffffff1663b9db15b4836040518263ffffffff167c010000000000000000000000000000000000000000000000000000000002815260040161041f9190610a29565b600060405180830381865afa15801561043c573d6000803e3d6000fd5b505050506040513d6000823e3d601f19601f820116820180604052508101906104659190610d8e565b90508060a001516104ab576040517f08c379a00000000000000000000000000000000000000000000000000000000081526004016104a290610e34565b60405180910390fd5b60008160600151116104f2576040517f08c379a00000000000000000000000000000000000000000000000000000000081526004016104e990610ea0565b60405180910390fd5b80604001513414610538576040517f08c379a000000000000000000000000000000000000000000000000000000000815260040161052f90610f0c565b60405180910390fd5b60008160800151905061056a348273ffffffffffffffffffffffffffffffffffffffff1661076d90919063ffffffff16565b60008054906101000a900473ffffffffffffffffffffffffffffffffffffffff1673ffffffffffffffffffffffffffffffffffffffff16634a1cfdef8460016040518363ffffffff167c01000000000000000000000000000000000000000000000000000000000281526004016105e2929190610f67565b600060405180830381600087803b1580156105fc57600080fd5b505af1158015610610573d6000803e3d6000fd5b5050505060006002600081548092919061062990610fbf565b9190505590506040518060a001604052808581526020013373ffffffffffffffffffffffffffffffffffffffff1681526020013481526020014281526020016000600481111561067c5761067b6108e5565b5b815250600160008381526020019081526020016000206000820151816000015560208201518160010160006101000a81548173ffffffffffffffffffffffffffffffffffffffff021916908373ffffffffffffffffffffffffffffffffffffffff160217905550604082015181600201556060820151816003015560808201518160040160006101000a81548160ff02191690836004811115610722576107216108e5565b5b02179055509050507fa8bfac72285d2c7a4231a709d3dee850d0f0d204d4b18a725d6e6b8597ee8ad48185333460405161075f9493929190611007565b60405180910390a150505050565b60008273ffffffffffffffffffffffffffffffffffffffff16826040516107939061107d565b60006040518083038185875af1925050503d80600081146107d0576040519150601f19603f3d011682016040523d82523d6000602084013e6107d5565b606091505b5050905080610819576040517f08c379a0000000000000000000000000000000000000000000000000000000008152600401610810906110de565b60405180910390fd5b505050565b6000604051905090565b600080fd5b600080fd5b6000819050919050565b61084581610832565b811461085057600080fd5b50565b6000813590506108628161083c565b92915050565b60006020828403121561087e5761087d610828565b5b600061088c84828501610853565b91505092915050565b61089e81610832565b82525050565b600073ffffffffffffffffffffffffffffffffffffffff82169050919050565b60006108cf826108a4565b9050919050565b6108df816108c4565b82525050565b7f4e487b7100000000000000000000000000000000000000000000000000000000600052602160045260246000fd5b60058110610925576109246108e5565b5b50565b600081905061093682610914565b919050565b600061094682610928565b9050919050565b6109568161093b565b82525050565b600060a0820190506109716000830188610895565b61097e60208301876108d6565b61098b6040830186610895565b6109986060830185610895565b6109a5608083018461094d565b9695505050505050565b6000819050919050565b60006109d46109cf6109ca846108a4565b6109af565b6108a4565b9050919050565b60006109e6826109b9565b9050919050565b60006109f8826109db565b9050919050565b610a08816109ed565b82525050565b6000602082019050610a2360008301846109ff565b92915050565b6000602082019050610a3e6000830184610895565b92915050565b60058110610a5157600080fd5b50565b600081359050610a6381610a44565b92915050565b60008060408385031215610a8057610a7f610828565b5b6000610a8e85828601610853565b9250506020610a9f85828601610a54565b9150509250929050565b6000604082019050610abe6000830185610895565b610acb602083018461094d565b9392505050565b600080fd5b6000601f19601f8301169050919050565b7f4e487b7100000000000000000000000000000000000000000000000000000000600052604160045260246000fd5b610b2082610ad7565b810181811067ffffffffffffffff82111715610b3f57610b3e610ae8565b5b80604052505050565b6000610b5261081e565b9050610b5e8282610b17565b919050565b600080fd5b600080fd5b600080fd5b600067ffffffffffffffff821115610b8d57610b8c610ae8565b5b610b9682610ad7565b9050602081019050919050565b60005b83811015610bc1578082015181840152602081019050610ba6565b60008484015250505050565b6000610be0610bdb84610b72565b610b48565b905082815260208101848484011115610bfc57610bfb610b6d565b5b610c07848285610ba3565b509392505050565b600082601f830112610c2457610c23610b68565b5b8151610c34848260208601610bcd565b91505092915050565b600081519050610c4c8161083c565b92915050565b610c5b816108c4565b8114610c6657600080fd5b50565b600081519050610c7881610c52565b92915050565b60008115159050919050565b610c9381610c7e565b8114610c9e57600080fd5b50565b600081519050610cb081610c8a565b92915050565b600060c08284031215610ccc57610ccb610ad2565b5b610cd660c0610b48565b9050600082015167ffffffffffffffff811115610cf657610cf5610b63565b5b610d0284828501610c0f565b600083015250602082015167ffffffffffffffff811115610d2657610d25610b63565b5b610d3284828501610c0f565b6020830152506040610d4684828501610c3d565b6040830152506060610d5a84828501610c3d565b6060830152506080610d6e84828501610c69565b60808301525060a0610d8284828501610ca1565b60a08301525092915050565b600060208284031215610da457610da3610828565b5b600082015167ffffffffffffffff811115610dc257610dc161082d565b5b610dce84828501610cb6565b91505092915050565b600082825260208201905092915050565b7f50726f64756374206973206e6f7420617661696c61626c650000000000000000600082015250565b6000610e1e601883610dd7565b9150610e2982610de8565b602082019050919050565b60006020820190508181036000830152610e4d81610e11565b9050919050565b7f50726f64756374206973206f7574206f662073746f636b000000000000000000600082015250565b6000610e8a601783610dd7565b9150610e9582610e54565b602082019050919050565b60006020820190508181036000830152610eb981610e7d565b9050919050565b7f496e636f727265637420616d6f756e742073656e740000000000000000000000600082015250565b6000610ef6601583610dd7565b9150610f0182610ec0565b602082019050919050565b60006020820190508181036000830152610f2581610ee9565b9050919050565b6000819050919050565b6000610f51610f4c610f4784610f2c565b6109af565b610832565b9050919050565b610f6181610f36565b82525050565b6000604082019050610f7c6000830185610895565b610f896020830184610f58565b9392505050565b7f4e487b7100000000000000000000000000000000000000000000000000000000600052601160045260246000fd5b6000610fca82610832565b91507fffffffffffffffffffffffffffffffffffffffffffffffffffffffffffffffff8203610ffc57610ffb610f90565b5b600182019050919050565b600060808201905061101c6000830187610895565b6110296020830186610895565b61103660408301856108d6565b6110436060830184610895565b95945050505050565b600081905092915050565b50565b600061106760008361104c565b915061107282611057565b600082019050919050565b60006110888261105a565b9150819050919050565b7f455448207472616e73666572206661696c656400000000000000000000000000600082015250565b60006110c8601383610dd7565b91506110d382611092565b602082019050919050565b600060208201905081810360008301526110f7816110bb565b905091905056fea2646970667358221220eea1786859001b9ddec43d9b4ffd3e757d6e894425a5b3c33df4085f365500f664736f6c63430008150033",
  "immutableReferences": {},
  "source": "// SPDX-License-Identifier: MIT\r\npragma solidity ^0.8.21;\r\n\r\nimport \"./ProductManagement.sol\";\r\nimport \"./SafeTransferLib.sol\";\r\n\r\ncontract TransactionManagement {\r\n    using SafeTransferLib for address payable;\r\n\r\n    ProductManagement public productManagement;\r\n\r\n    struct Transc {\r\n        uint256 productId;\r\n        address buyer;\r\n        uint256 amount;\r\n        uint256 timestamp;\r\n        TransactionStatus status;\r\n    }\r\n\r\n    enum TransactionStatus {\r\n        PENDING,\r\n        CONFIRMED,\r\n        SHIPPED,\r\n        COMPLETED,\r\n        CANCELLED\r\n    }\r\n\r\n    mapping(uint256 => Transc) public transactions;\r\n    uint256 public transactionCount;\r\n\r\n    event TransactionCreated(\r\n        uint256 transactionId,\r\n        uint256 productId,\r\n        address buyer,\r\n        uint256 amount\r\n    );\r\n    event TransactionStatusUpdated(\r\n        uint256 transactionId,\r\n        TransactionStatus newStatus\r\n    );\r\n\r\n    constructor(address _productManagementAddress) {\r\n        productManagement = ProductManagement(_productManagementAddress);\r\n    }\r\n\r\n    function createTransaction(uint256 _productId) external payable {\r\n        ProductManagement.Product memory product = productManagement.getProduct(\r\n            _productId\r\n        );\r\n        require(product.available, \"Product is not available\");\r\n        require(product.quantity > 0, \"Product is out of stock\");\r\n        require(msg.value == product.price, \"Incorrect amount sent\");\r\n\r\n        address payable seller = payable(product.seller);\r\n        seller.safeTransfer(msg.value);\r\n\r\n        productManagement.decreaseQuantity(_productId, 1);\r\n\r\n        uint256 transactionId = transactionCount++;\r\n        transactions[transactionId] = Transc({\r\n            productId: _productId,\r\n            buyer: msg.sender,\r\n            amount: msg.value,\r\n            timestamp: block.timestamp,\r\n            status: TransactionStatus.PENDING\r\n        });\r\n\r\n        emit TransactionCreated(\r\n            transactionId,\r\n            _productId,\r\n            msg.sender,\r\n            msg.value\r\n        );\r\n    }\r\n\r\n    function updateTransactionStatus(\r\n        uint256 _transactionId,\r\n        TransactionStatus _newStatus\r\n    ) external {\r\n        Transc storage transaction = transactions[_transactionId];\r\n        transaction.status = _newStatus;\r\n        emit TransactionStatusUpdated(_transactionId, _newStatus);\r\n    }\r\n\r\n    function getTransaction(\r\n        uint256 _transactionId\r\n    )\r\n        external\r\n        view\r\n        returns (\r\n            uint256 productId,\r\n            address buyer,\r\n            uint256 amount,\r\n            uint256 timestamp,\r\n            TransactionStatus status\r\n        )\r\n    {\r\n        Transc memory transactionDetails = transactions[_transactionId];\r\n        return (transactionDetails.productId, transactionDetails.buyer, transactionDetails.amount, transactionDetails.timestamp, transactionDetails.status);\r\n    }\r\n}\r\n",
  "sourcePath": "C:\\Users\\amine\\Desktop\\PCD\\TrustChain_back\\truffle_subproject\\contracts\\TransactionManagement.sol",
  "compiler": {
    "name": "solc",
    "version": "0.8.21+commit.d9974bed.Emscripten.clang"
  },
  "schemaVersion": "3.4.16",
  "updatedAt": "2025-05-04T08:46:53.474Z",
  "networkType": "ethereum",
  "devdoc": {
    "kind": "dev",
    "methods": {},
    "version": 1
  },
  "userdoc": {
    "kind": "user",
    "methods": {},
    "version": 1
  }
}